:020000040800F2
:10000000B8380020990200084D620008D14E00085F
:1000100049620008B1110008018F000800000000CB
:100020000000000000000000000000005D820008E9
:10003000C111000800000000516200087585000829
:10004000B3020008B3020008B3020008B3020008BC
:10005000B3020008B3020008B3020008B3020008AC
:10006000B3020008B3020008B3020008B51100088B
:10007000B3020008B3020008B3020008B30200088C
:10008000B3020008000000001D0E0008B3020008C3
:10009000B3020008B3020008B3020008B30200086C
:1000A000B3020008B3020008B3020008B30200085C
:1000B0008D850008B3020008B3020008B3020008EF
:1000C000B3020008B3020008B3020008B30200083C
:1000D000B3020008F58E0008B3020008B30200085E
:1000E000B3020008B3020008B3020008B30200081C
:1000F000B3020008B3020008B302000800000000C9
:1001000000000000B302000800000000B302000875
:10011000B302000800000000B3020008B3020008A8
:10012000B3020008B3020008B3020008B3020008DB
:10013000B30200080000000000000000B302000845
:10014000B3020008B3020008000000000000000035
:10015000000000000000000000000000000000009F
:10016000000000000000000000000000B3020008D2
:10017000B3020008000000000000000000000000C2
:1001800000000000B30200080000000000000000B2
:10019000000000000000000000000000000000005F
:1001A0000000000000000000B3020008B3020008D5
:1001B000B3020008B3020008B30200080000000008
:1001C00000000000B3020008000000000000000072
:1001D000B3020008B302000800F002F800F04CF887
:1001E0000AA090E8000C82448344AAF10107DA4592
:1001F00001D100F041F8AFF2090EBAE80F0013F098
:10020000010F18BFFB1A43F00103184744E8000030
:1002100064E80000103A24BF78C878C1FAD85207C1
:1002200024BF30C830C144BF04680C607047000070
:100230000023002400250026103A28BF78C1FBD8EF
:10024000520728BF30C148BF0B60704766290AF0CB
:100250007B83642900F0CC80002070471FB50AF032
:1002600066FB00F061FC0400002000210AF0D2FAD5
:10027000E0601FBD10B510BD00F05AFD1146FFF73C
:10028000EDFF09F01FFD00F078FD03B4FFF7F2FF6A
:1002900003BC00F0BBFD0000094880470948004747
:1002A000FEE7FEE7FEE7FEE7FEE7FEE7FEE7FEE726
:1002B000FEE7FEE704480549054A064B7047000083
:1002C00079850008D9010008B8320020B83800202C
:1002D000B8340020B834002053EA020C00F06980E2
:1002E0002DE9F04B4FF00006002B1FBFB3FA83F54A
:1002F00003FA05F424FA05F65E4012BF1643B2FA7B
:1003000082F502FA05F4C5F120051EBF22FA05FCAC
:1003100044EA0C04203556EA044C4FEA144418BF52
:10032000641C4FF000084FF00009904271EB030C81
:1003300039D3002919BFB1FA81F701FA07F6B0FAEB
:1003400080F700FA07F6C7F120071EBF20FA07FC66
:1003500046EA0C062037B6FBF4FCA7EB0507103F76
:1003600007F01F0BCBF120062CFA06F60CFA0BFB5C
:1003700044BFB3460026202FA4BF5E464FF0000BBB
:100380005BEA060C08BF4FF0010B19EB0B0948EBB9
:100390000608ABFB027C06FB02CC0BFB03CCC01BAC
:1003A00071EB0C01C1E70B46024641464846BDE8E9
:1003B000F08B13B5084318BF4FF0FF300146AFF381
:1003C0000080BDE81C4070470FB41CB5074B06AA5F
:1003D0007B4469460090059800F08DFB002069463B
:1003E00000F09CFB1CBC5DF814FB000049070000FA
:1003F0002DE9F0410646002410687529314616A5FE
:1004000010D0AFF30080002802DA404213A507E0C5
:1004100031688A0701D512A502E0490704D511A564
:10042000012401E0AFF3008000210A2206F1240735
:1004300009E0B0FBF2FCB0FBF2F302FB1C00303031
:1004400078541846491C0028F3D123462A463046E2
:10045000BDE8F04100F0E3B8000000002D0000000E
:100460002B000000200000002DE9F0474FF0000AAB
:1004700089460446C0F820A02046E1688847002845
:1004800076D0252806D0D4E901219047206A401C67
:100490002062F1E7E168204600258847C4F81CA0E7
:1004A00006460027C4F818A02A2E09D030460AF0C4
:1004B000A9F938B304EB8708303EC8F8186019E092
:1004C00059F8041B204604EB87029161E1688847D4
:1004D000012F064618D1E069002820DA25F0200512
:1004E0001DE0D8F8180000EB800006EB4000303823
:1004F000C8F818002046E168884706460AF082F9E5
:100500000028EED1012F0AD02E2E08D12046E16816
:1005100088477F1C0646022F45F02005C4DBA069F2
:10052000002803DA404245F00105A061E80701D048
:1005300025F01005B6B1A6F14100192802D82036E1
:1005400045F400654A463146204625604D46FFF792
:100550007DFE58B1012806D0ED1D25F0070000F101
:10056000080989E704E005F1040985E730468AE7D0
:10057000206ABDE8F08710B5431C02E010F8011BAB
:1005800071B18107FAD14FF0013202C88C1A8C4345
:1005900014EAC211F9D0C01A0A0603D0C01E10BD59
:1005A000C01A10BD0A0401D0801E10BD0902FCD083
:1005B000401E10BD4FF0000200B51346944696460B
:1005C000203922BFA0E80C50A0E80C50B1F1200166
:1005D000BFF4F7AF090728BFA0E80C5048BF0CC014
:1005E0005DF804EB890028BF40F8042B08BF704772
:1005F00048BF20F8022B11F0804F18BF00F8012BE4
:10060000704770477047704710B500F091FA006866
:1006100010BD10B5044600F08BFA046010BD2DE942
:10062000F0470D4699469246044600F124080168B9
:10063000880604D5E06921F01001216000E0012066
:10064000A84201DD471B00E00027A1697A1902EBEF
:100650000900081AA0612078C00602D42046AFF332
:100660000080002608E0D4E901211AF8060090472E
:10067000206A401C761C20624E45F4DB2078C006C0
:100680000AD52046AFF3008006E0D4E901213020EE
:100690009047206A401C2062381EA7F10107F4DC55
:1006A00007E0D4E9012118F805009047206A401CB2
:1006B0002062281EA5F10105F3DC2046AFF300807F
:1006C0002078000602D50220BDE8F0870120FBE774
:1006D0002DE9FF4F0C461E464FF0FF378BB0D2E995
:1006E0000001DDF860800A908A46C1F30A5505B919
:1006F0003D46002108464FF00000BAF1000F00F41B
:10070000400005DA00EB80004FF4400101EA5000A0
:100710004FEA9059B9F1010F00DDB9460A9850EA45
:100720004A000ED044F61050A5F2FF3545432F1471
:10073000B8F1000F1ED07542291E1EDDC9F100025E
:100740001CE0B8F1010F4FF0000001D0302103E0B0
:10075000F24305E02154401CB042FBDB304600224E
:10076000002121540B99C1F80880C1E900200FB085
:10077000BDE8F08FBD1B6D1CDEE74A4600DA69421A
:1007800006A800F05FFA06AB93E8070003AB83E826
:10079000070050460A9909F0DAFA8DE80700A0F53B
:1007A00000501F3800900398002D0ADD42F21F010F
:1007B0004A460844002303A90390684609F044FD13
:1007C00009E0A0F500504A461F38002303A9039012
:1007D000684609F04EFD8DE807000004000C03D0C8
:1007E0004FF0FF30410800E01046B8F1000F03D091
:1007F0000022009215461EE0751E05D400F09CF9FB
:10080000303262556D1EF9D5B3460122084302D03D
:1008100000227F1C04E02078302801D100227F1EB6
:10082000002A099784D01DE0112D07DA00F084F921
:10083000303262556D1C50EA0102F5D1084302D0F6
:100840000098C8B10EE00021681E05E0235C625CE0
:1008500063542254401E491C8142F7DBAB46A81B5F
:10086000401E0990002004F80B000B98099AC0F86C
:100870000880C0E9002B7AE711264FF0000857E7FF
:100880002DE9F04F88460446D21D22F0070191B0B1
:10089000D1E90001CDE90A0109F022FE02460B98D8
:1008A000C00F01D02D2007E02068810701D52B2043
:1008B00002E0202101EAC000032A099001D0072AA2
:1008C00005DB03464146204600F07CF90BE1207829
:1008D000800601D5E06900E00620B8F1650F814689
:1008E00006D0B8F1660F18D0B8F1670F70D131E0BB
:1008F0000020B9F1110F009001DB112301E009F193
:1009000001030AAA01A90CA8FFF7E2FEDDE90C70B9
:10091000002609F10105834647E001204B4600907F
:100920004FF000470AAA01A90CA8FFF7D1FEDDE9A4
:100930000DB00C995D46002610B909F101000D18A3
:10094000B9EB050003D4C0F1FF3609F10105A5EBB1
:1009500009002BE0B9F1010F01DA4FF00109002085
:10096000B9F1110F0090484601DD112300E0034664
:100970000AAA01A90CA8FFF7ABFEDDE90C704D46F1
:1009800000268346207800070AD4AB4500DA5D468E
:1009900001A8012D04DD411911F8011C302907D0EF
:1009A0004F4502DA17F1040F04DA012082460FE006
:1009B0006D1EEEE7002F02DCED1B3E4403E0781CC9
:1009C000A84200DD7D1CB81B00F1010A4FF0004772
:1009D0002078000703D4AA4501DB4FF0FF3A00213D
:1009E000B7F1004F0DF143088DF8431024D00220D9
:1009F0002B23002F01DA7F422D230A21021EA0F1B2
:100A0000010000DC5FB197FBF1FC97FBF1F201FB09
:100A10001C7C17460CF1300C08F801CDEEE7A8F16C
:100A2000010003702188090501D5452100E06521F9
:100A3000A0F1010800F8011C09980FA9A1EB080713
:100A4000FF1D00B10120411901EBEA70A169384492
:100A5000081A401EA0612078C00602D42046AFF3D9
:100A60000080099828B1D4E901219047206A401CF0
:100A700020622078C00622D52046AFF300801EE019
:100A8000002E04DBB34502DD01A8805D00E03020CC
:100A9000D4E901219047206A401C2062761CAAF10B
:100AA00001005FEA000A0AD100F03EF8C068016860
:100AB000405CD4E901219047206A401C2062281E36
:100AC000A5F10105DCDC07E0D4E9012118F8010BF0
:100AD0009047206A401C2062381EA7F10107F3DC12
:100AE0002046AFF30080032011B041E601694A1CA3
:100AF00002610878704700B58FB0CDE9013100215F
:100B0000059105497944CDE9031011466846FFF780
:100B1000ABFC0FB000BD0000E5FFFFFF0A6802F864
:100B2000010B0A6070470000004870473000002049
:100B3000004870471000002030B5B0F10A0271F192
:100B400000034FEA900E4EEA817EB0EB0E0061EB9F
:100B500091014FEA101E4EEA017E10EB0E0041EBB0
:100B600011114FEA102E4EEA016E10EB0E0041EB10
:100B700011214FEA104E4EEA014E10EB0E0041EBF0
:100B80001141401841F100014FEAD00040EA4170A4
:100B90004FEAD1014FEA810444EA907410EB8005DA
:100BA00044EB01046D1944EB0404521BA3414FF0C4
:100BB000000348BF0A3200D530BD401C41F100019E
:100BC00030BD00002DE9F0411F46044603260168B0
:100BD000072A01F4006004DB08B116A505E016A59C
:100BE00003E008B115A500E015A521F01000206074
:100BF000A069C01EA0610FB1401EA0612046AFF3E6
:100C000000804FB1D4E9012138469047206A401C4A
:100C10002062C01C206206E0206AFAE7D4E90121C4
:100C200015F8010B9047761EF8D22046AFF30080EE
:100C3000BDE8F0814E414E006E616E00494E4600A7
:100C4000696E66002DE9F047814616468AB0354840
:100C500078440DC88DE80D0032487844801C03AC00
:100C60000DC884E80D0041F69B300844372190FB05
:100C7000F1F290FBF1F5A5F1800501FB12041B3C9C
:100C800002D56442012000E00020DFF898A08046F1
:100C90000027FA44AAF1BE0A0EE0E0070AD0324665
:100CA000684607EB470101230AEB810109F0E1FAED
:100CB0008DE8070064107F1C002CEED1194F7F4493
:100CC000AE3F19E0E80715D007EB04100DF1180A44
:100CD00090E80E008AE80E00C068F04201D1981931
:100CE00008903246012306A903A809F0C2FA03AB13
:100CF00083E807006D10641C002DE3D14FF0010361
:100D000032466946B8F1000F03A802D009F09CFAF8
:100D100001E009F0AEFAC9E90001C9F808200AB0FB
:100D2000BDE8F087949D0000004870471000002047
:100D30007546FFF7F9FFAE4605006946534620F0B9
:100D40000700854618B020B5FFF7B4FABDE820408B
:100D50004FF000064FF000074FF000084FF0000B77
:100D6000AC46ACE8C009ACE8C009ACE8C009ACE8E6
:100D7000C00921F007018D46704710B50446AFF356
:100D800000802046BDE81040FFF77FBA0000000059
:100D900030B44FF0013C50F8042B51F8043BCCFA2E
:100DA00052F4D51A20D1FCB950F8042B51F8043B69
:100DB000CCFA52F4D51A17D1B4B950F8042B51F823
:100DC000043BCCFA52F4D51A0ED16CB950F8042B6E
:100DD00051F8043BCCFA52F4D51A05D1002CDAD0E4
:100DE00030BC4FF00000704729BAB1FA81F111F020
:100DF0001801D1F120008440F2D1CA40CB4012F05A
:100E0000FF0213F0FF0330BCD01A704701491820CD
:100E1000ABBEFEE7260002007047000043F2D000A0
:100E2000C2F2000001F082BA70B504460068826820
:100E3000836802F0040203F00803D21800F0BA80BD
:100E4000C26892016ED5627F012A6BD1227F012A8E
:100E500068D10168490661D40121CAF240310268B3
:100E600052065BD40268520658D4026852065CBF30
:100E700002685FEA426251D4026852065CBF0268AF
:100E80005FEA42624AD4026852065CBF02685FEAC7
:100E9000426243D4026852065CBF02685FEA426263
:100EA0003CD4026852065CBF02685FEA426235D4F5
:100EB000026852065CBF02685FEA42622ED4026892
:100EC00052065CBF02685FEA426227D4026852069B
:100ED0005CBF02685FEA426220D4026852065CBFCF
:100EE00002685FEA426219D4026852065CBF026877
:100EF0005FEA426212D4026852065CBF02685FEA8F
:100F000042620BD4026852065CBF02685FEA42622A
:100F100004D41B3944D002685206A0D54021016098
:100F2000012105E0022903D10221082612E000BFB9
:100F3000826852070AD58268920707D482684FF602
:100F4000C073C7F6FF731A401032826001294FF058
:100F5000040610D0826812070AD58268920707D467
:100F600082684FF6C073C7F6FF731A402032826062
:100F7000032908BF0C2602F08FF8216889683142E6
:100F800018D0054603E000BF8068304212D002F05E
:100F900083F8411B20680629F6D381683142F3D0DB
:100FA000E06D40F01000E065206E40F0010020662A
:100FB000012070BD002070BD0146806AC36DC26D06
:100FC00013F0500F08D0D20648BF01F0ADB9406D04
:100FD000426B0846104700BF42F40071C1650168CA
:100FE0000B68CA681B0703D4910707D501F07CB9C9
:100FF00012F4406FFAD1C9688904F7D4C16D21F4A5
:101000008071C165C16DC90448BF01F06DB9C16D82
:1010100041F00101C16501F067B90000806AC16D4E
:1010200041F04001C165016E41F00401016601F02B
:101030007BB90000806A01F075B90000B0B50168A5
:1010400004468A688868C0074FF0000031D012F06B
:10105000020218BFB0BD886800F00D0001281FD142
:1010600088684FF6C072C7F6FF7210400230886081
:101070000320086002F010F821688968C90704BFDE
:101080000020B0BD054602E08068C00712D002F023
:1010900003F8411B20680329F6D38168C907F3D000
:1010A000E06D40F01000E065206E40F00100206629
:1010B0000120B0BD0020B0BD70B582B00446002054
:1010C000019021688A68D20711D14FF6C076C7F621
:1010D000FF76886806F17F0210420BD0E06D40F089
:1010E0001000E065206E40F001002066012002B093
:1010F00070BD00BF8868304040F00100886040F259
:101100000830C5F200000068000221D401F0C4FFDD
:1011100021680A68D20717D1054602E00868C007AF
:1011200012D18868C00704D18868304040F00100BF
:10113000886001F0B1FF401B21680328EED30868E6
:10114000C007EBD1CAE700BF002002B070BD00BFEE
:1011500040F20C00C2F20000006842F663518009C0
:10116000C0F23E51A0FB0101880900EB40000C21B8
:1011700001EB8000019001980028C7D00198013848
:10118000019001980028C1D0019801380190019880
:101190000028BBD001980138019001980028B5D0F3
:1011A00001980138019001980028E7D1AEE70000CE
:1011B000FEE7000043F23C10C2F2000001F018BD4F
:1011C00070470000EFF3108072B600BFFEE700002A
:1011D0002DE9F04F81B02DED0A8B40F27009C2F27B
:1011E000000999ED010A40F2CC000021C2F2000092
:1011F000435E421801EE103AB2F90230B8EEC11A5D
:1012000030EE010AB2F9047001EE103AB8EEC11ADC
:10121000B2F9066030EE010A01EE107AB8EEC11A9A
:10122000B2F9085030EE010A01EE106AB8EEC11AA8
:1012300030EE010A01EE105AB2F90A30B8EEC11AC6
:1012400030EE010A01EE103AB2F90C30B8EEC11AD4
:1012500030EE010A01EE103AB2F90E30B8EEC11AC2
:1012600030EE010A01EE103AB2F91030B8EEC11AB0
:1012700030EE010A01EE103AB2F91230B8EEC11A9E
:1012800030EE010A01EE103AB2F91430B8EEC11A8C
:1012900030EE010A01EE103AB2F91630B8EEC11A7A
:1012A00030EE010A01EE103AB2F91830B8EEC11A68
:1012B00030EE010A01EE103AB2F91A30B8EEC11A56
:1012C00030EE010A01EE103AB2F91C30B8EEC11A44
:1012D00030EE010A01EE103AB2F91E20B8EEC11A42
:1012E00030EE010A01EE102AB8EEC11A2031B1F534
:1012F000006F30EE010A7FF47BAF9FED041A0021EE
:1013000020EE010A89ED010A02E000BF0000803AE8
:10131000435E421801EE103AB8EEC11A31EE401A9F
:10132000BDEEC11A11EE103A4352B2F90230B2F9D1
:10133000047001EE103AB8EEC11A31EE401ABDEE5B
:10134000C11A11EE103A01EE107AB8EEC11AB2F9D4
:10135000066031EE401ABDEEC11A538011EE103A0C
:1013600001EE106AB8EEC11AB2F9085031EE401A17
:10137000BDEEC11A938011EE103A01EE105AB8EE8C
:10138000C11A31EE401AB2F90A70BDEEC11AD3800B
:1013900011EE103A01EE107AB8EEC11A31EE401A91
:1013A000B2F90C70BDEEC11A138111EE103A01EEC4
:1013B000107AB8EEC11A31EE401AB2F90E70BDEED5
:1013C000C11A538111EE103A01EE107AB8EEC11A2B
:1013D00031EE401AB2F91070BDEEC11A938111EED0
:1013E000103A01EE107AB8EEC11A31EE401AB2F995
:1013F0001270BDEEC11AD38111EE103A01EE107ACF
:10140000B8EEC11A31EE401AB2F91470BDEEC11A2D
:10141000138211EE103A01EE107AB8EEC11A31EED5
:10142000401AB2F91670BDEEC11A538211EE103A8D
:1014300001EE107AB8EEC11A31EE401AB2F9187006
:10144000BDEEC11A938211EE103A01EE107AB8EE99
:10145000C11A31EE401AB2F91A70BDEEC11AD38228
:1014600011EE103A01EE107AB8EEC11A31EE401AC0
:10147000B2F91C70BDEEC11A138311EE103A01EEE1
:10148000107AB8EEC11A31EE401AB2F91E70BDEEF4
:10149000C11A538311EE103A01EE107AB8EEC11A58
:1014A00031EE401ABDEEC11A2031938311EE103A8D
:1014B000B1F5006FD3837FF42BAF9FED949A9FED2E
:1014C00094AA00F10E044FF0000A6FF01F0BB6EE65
:1014D000008AB7EE00BA0026002500BF00EE105AC1
:1014E000B8EEC00A20EE090A80EE0A0A34F90E0CA2
:1014F00001EE100AB8EEC11A21EE08CA09F008F888
:10150000681C01EE100AB8EEC11A21EE091A81EE2C
:101510000A1A40F6D0083BEE400AC2F2000834F93D
:101520000C0C2CEE000A08EB060787ED000A00EE13
:10153000100AB8EEC00A20EE08CAC7F804A0B0EE40
:10154000410A08F0E5FFA81C01EE100AB8EEC11A26
:1015500021EE091A81EE0A1A3BEE400A34F90A0C10
:101560002CEE000A87ED020A00EE100AB8EEC00A5F
:1015700020EE08CAC7F80CA0B0EE410A08F0C8FF78
:10158000E81C01EE100AB8EEC11A21EE091A81EE2C
:101590000A1A3BEE400A34F9080C2CEE000A87EDDB
:1015A000040A00EE100AB8EEC00A20EE08CAC7F816
:1015B00014A0B0EE410A08F0ABFF281D01EE100A9E
:1015C000B8EEC11A21EE091A81EE0A1A3BEE400A62
:1015D00034F9060C2CEE000A87ED060A00EE100A1C
:1015E000B8EEC00AD84420EE08CAC8F83CA0B0EE55
:1015F000410A08F08DFF681D01EE100AB8EEC11A0D
:1016000021EE091A81EE0A1A3BEE400A34F9040C65
:101610002CEE000A88ED100A00EE100AB8EEC00A9F
:1016200020EE08CAC7F824A0B0EE410A08F070FF07
:10163000A81D01EE100AB8EEC11A21EE091A81EEBA
:101640000A1A3BEE400A34F9020C2CEE000A87ED30
:101650000A0A00EE100AB8EEC00A20EE08CAC7F85F
:101660002CA0B0EE410A08F053FFE81D01EE100A6D
:10167000B8EEC11A21EE091A81EE0A1A3BEE400AB1
:1016800034F9100B2CEE000A87ED0C0A00EE100A5C
:10169000B8EEC00A20EE08CAC7F834A0B0EE410A7E
:1016A00008F036FF3BEE400A08352CEE000A4036C3
:1016B000B5F5806F0BF1400B87ED0E0AC7F83CA023
:1016C0007FF40CAF40F6D005D9F80800C2F200054F
:1016D00029460022012307F037FC42F6D004C2F26B
:1016E0000004284621464FF4007207F067FF94ED8E
:1016F000000A04F1200020EE080A84ED000A99EDAA
:10170000050A0F2140F20F2216E000BFDB0FC9408F
:1017100000C07F4490ED071A4030B4EE401AF1EE5D
:1017200010FAC2BF89ED051AA9F80210B0EE410AFD
:101730001031914200F05A8110ED081AB4EE401AAF
:10174000F1EE10FA70DC10ED071AB4EE401AF1EE6B
:1017500010FA78DC10ED061AB4EE401AF1EE10FA29
:1017600000F3818010ED051AB4EE401AF1EE10FA84
:1017700000F3898010ED041AB4EE401AF1EE10FA6D
:1017800000F3918010ED031AB4EE401AF1EE10FA56
:1017900000F3998010ED021AB4EE401AF1EE10FA3F
:1017A00000F3A18010ED011AB4EE401AF1EE10FA28
:1017B00000F3A98090ED001AB4EE401AF1EE10FA91
:1017C00000F3B18090ED011AB4EE401AF1EE10FA78
:1017D00000F3B88090ED021AB4EE401AF1EE10FA60
:1017E00000F3BF8090ED031AB4EE401AF1EE10FA48
:1017F00000F3C68090ED041AB4EE401AF1EE10FA30
:1018000000F3CD8090ED051AB4EE401AF1EE10FA17
:1018100000F3D48090ED061AB4EE401AF1EE10FAFF
:101820007FF778AFD9E000BFA1F10F03B0EE410A16
:1018300089ED051AA9F8023010ED071AB4EE401A26
:10184000F1EE10FA86DDA1F10E03B0EE410A89ED4A
:10185000051AA9F8023010ED061AB4EE401AF1EE9E
:1018600010FA7FF77FAFA1F10D03B0EE410A89EDC9
:10187000051AA9F8023010ED051AB4EE401AF1EE7F
:1018800010FA7FF777AFA1F10C03B0EE410A89EDB2
:10189000051AA9F8023010ED041AB4EE401AF1EE60
:1018A00010FA7FF76FAFA1F10B03B0EE410A89ED9B
:1018B000051AA9F8023010ED031AB4EE401AF1EE41
:1018C00010FA7FF767AFA1F10A03B0EE410A89ED84
:1018D000051AA9F8023010ED021AB4EE401AF1EE22
:1018E00010FA7FF75FAFA1F10903B0EE410A89ED6D
:1018F000051AA9F8023010ED011AB4EE401AF1EE03
:1019000010FA7FF757AFA1F10803B0EE410A89ED55
:10191000051AA9F8023090ED001AB4EE401AF1EE63
:1019200010FA7FF74FAFCB1FB0EE410A89ED051AD1
:10193000A9F8023090ED011AB4EE401AF1EE10FA57
:101940007FF748AF8B1FB0EE410A89ED051AA9F861
:10195000023090ED021AB4EE401AF1EE10FA7FF761
:1019600041AF4B1FB0EE410A89ED051AA9F80230CC
:1019700090ED031AB4EE401AF1EE10FA7FF73AAF89
:101980000B1FB0EE410A89ED051AA9F8023090ED5F
:10199000041AB4EE401AF1EE10FA7FF733AFCB1E03
:1019A000B0EE410A89ED051AA9F8023090ED051A4A
:1019B000B4EE401AF1EE10FA7FF72CAF8B1EB0EEAA
:1019C000410A89ED051AA9F8023090ED061AB4EE25
:1019D000401AF1EE10FA7FF79DAE4B1EB0EE410AB1
:1019E00089ED051AA9F8023094E600BF002000BF77
:1019F000211891ED012A91ED001A82EE002A91ED55
:101A0000023A81EE001A83EE003A91ED034A91ED1D
:101A1000075A91ED086A91ED097AD1ED0A0AD1EDE4
:101A20000B1AD1ED0C2AD1ED0D3AD1ED0E4AD1EDC4
:101A30000F5A81ED012A84EE002A81ED001A81ED12
:101A4000023A91ED041A91ED053A91ED064A81EEC4
:101A5000001A83EE003A84EE004A85EE005A86EEC4
:101A6000006A87EE007AC0EE800AC1EE801AC2EEEC
:101A7000802AC3EE803AC4EE804A81ED032A85EEC7
:101A8000802A4030B0F5006F81ED041A81ED053AEF
:101A900081ED064A81ED075A81ED086A81ED097AE8
:101AA000C1ED0A0AC1ED0B1AC1ED0C2AC1ED0D3AC8
:101AB000C1ED0E4A81ED0F2A9AD1B9F802006321D7
:101AC000414300EE101A6FF0020101EB40010322C6
:101AD00002EB40028BB2B8EEC00A9A4289ED030ACB
:101AE00046D999ED060A00BF04EB830393ED001A73
:101AF0004B1CB4EE401AF1EE10FA9BB2C4BF89ED54
:101B0000061AB0EE410A9A4232D904EB830393EDF0
:101B1000001A8B1CB4EE401AF1EE10FA9BB2C4BF4F
:101B200089ED061AB0EE410A9A4221D904EB8303EB
:101B300093ED001ACB1CB4EE401AF1EE10FA9BB2F2
:101B4000C4BF89ED061AB0EE410A9A4210D904EBDF
:101B5000830393ED001A0431B4EE401AF1EE10FA4B
:101B60008BB2C4BF89ED061AB0EE410A9A42BBD8C7
:101B700000EB4002D11E03328BB29A4246D999ED56
:101B8000070A00BF04EB830393ED001A4B1CB4EE6D
:101B9000401AF1EE10FA9BB2C4BF89ED071AB0EEFD
:101BA000410A9A4232D904EB830393ED001A8B1C4D
:101BB000B4EE401AF1EE10FA9BB2C4BF89ED071AD9
:101BC000B0EE410A9A4221D904EB830393ED001A47
:101BD000CB1CB4EE401AF1EE10FA9BB2C4BF89EDF3
:101BE000071AB0EE410A9A4210D904EB830393ED31
:101BF000001A0431B4EE401AF1EE10FA8BB2C4BFF1
:101C000089ED071AB0EE410A9A42BBD86FF0020183
:101C100001EB8001820003328BB29A4246D999EDE2
:101C2000080A00BF04EB830393ED001A4B1CB4EECB
:101C3000401AF1EE10FA9BB2C4BF89ED081AB0EE5B
:101C4000410A9A4232D904EB830393ED001A8B1CAC
:101C5000B4EE401AF1EE10FA9BB2C4BF89ED081A37
:101C6000B0EE410A9A4221D904EB830393ED001AA6
:101C7000CB1CB4EE401AF1EE10FA9BB2C4BF89ED52
:101C8000081AB0EE410A9A4210D904EB830393ED8F
:101C9000001A0431B4EE401AF1EE10FA8BB2C4BF50
:101CA00089ED081AB0EE410A9A42BBD800EB8001D8
:101CB000C81E99ED090A033182B2914244D900BF8E
:101CC00004EB820292ED001A421CB4EE401AF1EECF
:101CD00010FA92B2C4BF89ED091AB0EE410A9142DE
:101CE00032D904EB820292ED001A821CB4EE401A43
:101CF000F1EE10FA92B2C4BF89ED091AB0EE410AB2
:101D0000914221D904EB820292ED001AC21CB4EE7A
:101D1000401AF1EE10FA92B2C4BF89ED091AB0EE82
:101D2000410A914210D904EB820292ED001A04306C
:101D3000B4EE401AF1EE10FAC4BF89ED091AB0EE04
:101D4000410A82B29142BBD899ED062A99ED041A54
:101D500099ED073A99ED084A22EE022A32EE011A6D
:101D600023EE032A32EE011A24EE042A32EE011A7F
:101D700020EE000A30EE010AB1EEC00A89ED040A35
:101D8000BDEC0A8B01B0BDE8F08F0000B0B582B0A9
:101D900004460020019094F85800012802D1022046
:101DA00002B0B0BD012084F8580020460D46FFF770
:101DB00045F9E16D10B141F010014BE041F2021222
:101DC00091430231E16521684FF6C073D1F808C034
:101DD000C3F6FF7303EA0C0305F080454DF601627C
:101DE0002B44C0F2040203F100438B608B68B3F113
:101DF000FF3F2BDC019B01330193019B93421DD8D4
:101E00008B68B3F1FF3F21DC019B01330193019B00
:101E1000934213D88B68B3F1FF3F17DC019B01336A
:101E20000193019B934209D88B68B3F1FF3F0DDC0E
:101E3000019B01330193019B9342D7D9E06D40F0A0
:101E4000100020F00201012004E000BFE16D01223A
:101E500062F30101E165002184F8581002B0B0BDC1
:101E60007047000070470000704700007047000096
:101E70007047000070B582B090F85820012A03D155
:101E80000221084602B070BD002201920092026851
:101E9000B2F1A04F30D140F208324FF6006C4FF64D
:101EA0000055C5F20002CFF6FF7CCFF6FF7552F861
:101EB0000C40535923435B071ED4D1F800E013684C
:101EC000BEF1000F23F4604422D04B6890F83860D4
:101ED00043EA463323431360535952F80C603343AB
:101EE000DB0723D1136840F61F768968B343194393
:101EF00041EA0E0117E000BFC16D41F02001C1654C
:101F00000121002280F85820084602B070BD00BFB1
:101F10001460515952F80C301943C90708D111689F
:101F200040F61F73994311600021EAE70021E8E7BA
:101F30000021E6E7F0B581B00022009290F8582029
:101F4000012A03D10221084601B0F0BD0123076830
:101F500080F85830BB685B0736D4D1E900531F26A0
:101F6000C3F3012407EB8404226B03F01F039E409C
:101F7000B243C5F3846606FA03F31A432263BA68D0
:101F8000BB6802F0040203F00803D21840F0BD80E1
:101F90000A6807F114030426C2F34064D1F808E08C
:101FA00006EAD25C53F82450C2F304540722A2403C
:101FB000BEF1004F25EA02050CD143F80C501A6817
:101FC00042F000430EE000BFC16D41F02001C16549
:101FD000012182E10EFA04F22A4343F80C201A6828
:101FE00022F000437B61D1E90434FD68042B5FD10A
:101FF0003A6E3A6E0B68C2F3846293FAA3F6C3F3A7
:10200000846C6FF3DF43B6FA86F5002B2C464FF64F
:10201000FF7E08BF6446A242C0F2070E0CD13A6EA2
:1020200022F000423A660A6802EA0E03C2F3846CA8
:1020300092FAA2F2B2FA82F57A6E7A6E002BC2F3AD
:1020400084622C4608BF6446A2420CD17A6E22F00C
:1020500000427A660A6802EA0E03C2F3846C92FABE
:10206000A2F2B2FA82F5BA6EBA6E002BC2F38462A3
:102070002C4608BF6446A2420CD1BA6E22F0004240
:10208000BA660A6802EA0E03C2F3846C92FAA2F2FC
:10209000B2FA82F5FA6EFA6E002BC2F3846208BFC0
:1020A0006546AA4231D1FA6E22F00042FA662CE06F
:1020B000062202EA95020E6807F1600504FA02FCA6
:1020C00055F823404FF20002C0F2FF3206F0F84606
:1020D000224046EA0C06324342F0004245F82320F3
:1020E0000A698B6955F8226026F08076334345F8FB
:1020F00022300A690B7F55F82260012B26F000760A
:1021000008BF06F1007645F82260BA68D20750D1C0
:102110000C68CA68D7F8B06023466FF3DF4326EA3D
:10212000030C4FF6FF7602F01805C0F20706EE40EA
:1021300000252640C4F27F0546EA0C06AA42C7F8ED
:10214000B06036D193B194FAA4F2B2FA82F20132BD
:1021500002F01E03092B02F01F0310D801229A403F
:1021600003EB430342EA035315E000BF012202EBF5
:10217000946202F01E030A2B02F01F03EED3012229
:1021800000269A4003EB4303CFF6206606EB035389
:102190001A4342F00073C3F3406607EB86068A6871
:1021A0007569C3F3045307249C40A5439A402A430E
:1021B000726109680022C8F20802114254D040F24C
:1021C000083CC5F2000CDCF800300022CCF22132D1
:1021D000914203F0E07404D01022C9F2C00291428F
:1021E00044D119024FF0000177D4B7F1A04F74D158
:1021F000DCF8001042F6635221F0E071214341F413
:102200000001CCF8001040F20C01C2F20001096894
:10221000C0F23E528909A1FB0212910901EB410172
:102220000C2202EB81010091009900293CD000BFF3
:102230000099013900910099002947D0009901398E
:1022400000910099002943D000990139009100992B
:1022500000293FD0009901390091009900294FF0E1
:102260000001E5D139E000BF002136E00022CCF2C8
:102270005272914208BF13F0807217D00022CCF640
:10228000843291424FF0000108BF13F4800224D140
:10229000ACF50272974220D0DCF8001021F0E0711A
:1022A000214341F480010CE0002116E0ACF50271FD
:1022B0008F4211D0DCF8001021F0E071214341F091
:1022C0008071CCF80010002107E000BF002104E07D
:1022D000002102E0002100E00021002280F85820C7
:1022E000084601B0F0BD000043F2D001C2F2000187
:1022F000884218BF704780B543F2D000C2F2000098
:1023000000F058FB43F29C10C2F2000001F0AAFE5C
:1023100040F27000C2F2000001210170BDE880406F
:102320007047000070470000704700002DE9F0473B
:10233000056840F20018C5F200082E68D5F804A020
:10234000D8F808720446B0070FD51AF002000CD076
:10235000E06DC00603D4E06D40F40060E065204607
:10236000FFF77EFD256802202860700707F01F092F
:1023700002D51AF0040004D1300749D51AF008003C
:1023800046D0204650F85C2FD20603D4026842F4AF
:1023900000720260EA6812F4406F33D12A46454564
:1023A00008BF4FF0A0421346B9F1090F08BF2B46F2
:1023B000B9F1050F08BF2B46B9F1000F08BF2B4636
:1023C000AA4208BF1346DA6892041BD42A6812078F
:1023D00018D5AA6852070BD46A6822F00C026A600A
:1023E000016821F4807101600168C90406D509E023
:1023F000E06D40F01000E06504F16000016841F01C
:10240000010101602046FFF76FFF25680C2028605E
:10241000B00602D51AF0200004D170062CD51AF0AF
:10242000400029D0204650F85C2FD20603D4026821
:1024300042F4005202602946EF6CEA68454508BF45
:102440004FF0A0410B46B9F1070F08BF2B46B9F179
:10245000060F08BF2B46B9F1000F08BF2B46A94253
:1024600008BF0B46DB6817F4C07F6BD02046FFF730
:10247000F9FC25686020286030060CD51AF0800031
:1024800009D0E06D40F48030E065204600F0ACF902
:10249000256880202860F0050DD51AF480700AD0D8
:1024A000E06D40F40030E0652046FFF7DFFC256872
:1024B0004FF480702860B0050DD51AF400700AD072
:1024C000E06D40F48020E0652046FFF7D1FC2568F0
:1024D0004FF400702860F0061AD51AF0100017D0DB
:1024E000E06B38B1B9F1000F4ED0D8F8080210F403
:1024F000604F0BD0E06D40F48060E065206E40F0EE
:10250000020020662046FFF70FFF25681020286094
:10251000700558BFBDE8F0871AF4806010D0E06DF8
:102520004FF4806140F48040E065206E40F0080088
:10253000206620462960BDE8F047FFF795BC00BF44
:10254000BDE8F087990106D502F4406103F400521A
:1025500089187FF48BAF296849067FF587AF13F49C
:1025600000117FF483AFA968090711D4696821F0CD
:1025700060016960016821F4805101600168C9054A
:102580003FF574AF0AE000BFE868C007B2D1BDE70D
:10259000E06D40F01000E06504F16000016841F07A
:1025A0000101016062E70000B0B582B0044600207E
:1025B00001904CB1E06D58B121688868800012D458
:1025C0008868C00019D54CE0012002B0B0BD00BF42
:1025D000204600F00BF90020206684F8580021689E
:1025E00088688000ECD588684FF6C072C5F6FF7227
:1025F000104088608868C00033D44FF6C072886885
:10260000C5F6FF7202F18052104000F180508860E0
:1026100040F20C00C2F20000006842F663528009EA
:10262000C0F23E52A0FB02029009022202EB4000DF
:1026300001900198A8B100BF01980138019001985C
:1026400078B1019801380190019850B10198013892
:102650000190019828B10198013801900198002853
:10266000EAD18868C00009D4E06D40F01000E06550
:10267000206E40F001002066012000E000208A6802
:10268000E36D02F0040203F01003D218E26D71D181
:1026900022F481720232E2658A68D2071AD140F2CE
:1026A000083C4FF600534FF60062C5F2000CCFF61F
:1026B000FF73CFF6FF725CF803305CF802201A4318
:1026C000D20707D16268DCF8003023F47C131A4388
:1026D000CCF80020627FE36B43EA4232D4E902C3C4
:1026E0001A4394F8243042EA0C02012B42EA0342D6
:1026F00007D1D4F828C00023CFF6FE7303EB4C4378
:102700001A43E36A33B1D4F830C003F4787343EA70
:102710000C031A43D1F80CC044F20703CFF6F07350
:1027200003EA0C031A43CA600A69636B22F0406231
:102730001A430A618A68120745D494F83820237F27
:10274000520042EA833CCB6844F2020223EA0202CE
:1027500042EA0C02CA6022690B698AB143F48033F1
:102760000B61D1F8C0C043F6FF732CEA03031A4390
:102770000EE000BF42F010010120E16502B0B0BDE3
:1027800023F480320A61D1F8C02043F6FF739A43E4
:10279000C1F8C02094F840300A69012B10D140F2F2
:1027A000FD7322EA030CD4E91132D4E913E543EABC
:1027B0000C031A4342EA0E022A4342F0010201E0EE
:1027C00022F001020A6162690B6B012A23F00F02F9
:1027D00002D1236A013B1A430A63E16D012262F3CD
:1027E0000101E16502B0B0BD7047000070B598B05E
:1027F00004460020CDE9160002A804304021FDF770
:10280000D9FE2068B0F1A04F02D018B070BD00BF53
:102810004FF4004002904FF00050119002A800F0D9
:102820008DFD002818BFFEF7CDFC41F24C00C4F22C
:1028300002000168002641F400510160016801F4C2
:10284000005101910199016841F0020101600068A5
:1028500013A900F00200019001984FF480501390EA
:102860000320149040F20040C4F60000159600F0DA
:1028700031FB43F23C150820C2F20005C4F202000D
:10288000052180224FF480734FF4806C85E843006B
:102890002846C5E90362C5E9053CC5E9076600F0BD
:1028A000FDF9002818BFFEF78DFC12200021002240
:1028B0006565AC6200F068FC122000F051FC18B0B5
:1028C00070BD00002DE9F04140F200170446C5F24A
:1028D0000007D7F80802236890469B685A0704D47B
:1028E0000E4694F85810012902D10220BDE8F0816B
:1028F00000F01F050120092D84F8580054D8A84085
:1029000040F2212108424FD02046FEF7D5FB28B1E6
:10291000002184F85810BDE8F08100BF2168E06D07
:1029200040F60172904300F58070B942E06500D135
:102930001DB9E06D20F48010E065E06D40F6B973DC
:10294000C0044FF0000044BF206E20F00600206657
:10295000606D41F23507C0F60003C0F6000741F292
:102960001D050022C0F60005C0E90B371C23456396
:102970000B6084F858204A68434642F010024A60CF
:10298000CA6842F00102CA604031324600F01CFAC7
:1029900021684FF6C0738A68C7F6FF731A40043285
:1029A0008A60BDE8F08100BF002084F85800012053
:1029B000BDE8F08170B5044690F85800012804BFC6
:1029C000022070BD012084F8580020460321FEF744
:1029D0002BFA054620B1002084F85800284670BD27
:1029E0002168606DCA6822F00102CA6090F8252053
:1029F000022A40D100F086F8E0B305462068E16D78
:102A000041F04001E165416821F0100141608168B9
:102A10008268D207DFD011F00201DCD1816801F0B9
:102A20000D0101291ED181684FF6C072C7F6FF72F1
:102A30001140023181600321016000F02DFB21680B
:102A40008968C907C7D0064603E000BF8068C00791
:102A5000C1D000F021FB811B20680329F6D38168D7
:102A6000C907F3D0E06D40F01000E065204650F853
:102A7000601F3FE02168486820F0100048608868C7
:102A80008A68D20717D010F0020014D1886800F0CD
:102A90000D00012826D188684FF6C072C7F6FF7274
:102AA0001040023088600320086000F0F5FA2168C9
:102AB0008968C90708D1204650F85C1F41F201120D
:102AC0009143002516E000BF054602E08068C0077C
:102AD000F1D000F0E1FA411B20680329F6D38168A8
:102AE000C907F3D0E06D012540F01000E0652046F5
:102AF00050F8601F41F001010160002084F8580087
:102B0000284670BD80B5014690F82500022825D1E1
:102B10000868D1E910CE8A6C036823F00E030360C5
:102B2000136823F480731360026822F001020260CC
:102B30000EF01F00012202FA00F0CCF80400D1E9E7
:102B400013205060486D68B1026822F48072026000
:102B5000D1E916024260002005E000BF0420C863EE
:102B6000012000E00020012281F82520002281F8C8
:102B7000242080BD80B590F8251002292ED101684F
:102B8000D0E910CE826C0B6823F00E030B600B684B
:102B900023F001030B60116821F4807111600EF0C5
:102BA0001F02012101FA02F2CCF80420D0E913320D
:102BB0005A60426D32B1136823F480731360D0E918
:102BC0001623536080F82510826B002180F82410B2
:102BD0000AB190470021084680BD00BF0421C163AF
:102BE0000121002280F8251080F82420084680BDAD
:102BF000B0B5D0E910C30268DCF8001003F01F0381
:102C00000424D2F800E09C400C4218BF1EF00405DA
:102C100022D102249C400C4218BF1EF0020529D18B
:102C2000D940090724D51EF0080108BFB0BD1168BE
:102C300021F00E011160012101FA03F2CCF8042009
:102C4000C16380F82510416B002280F8242079B1FF
:102C5000BDE8B040084700BF1168890603D4116879
:102C600021F004011160CCF80440016B0029EFD180
:102C7000B0BD00BF1168890606D4116821F00A01B1
:102C80001160012180F82510CCF80440C16A0022AF
:102C9000002980F82420DBD1EAE7000000284FF06B
:102CA000010100F08E802DE9F04740F2000CC4F2E3
:102CB000020C03684FF6F8320CF5816ECBF6FD720C
:102CC000734538BF02F580624CF6CD441A44CCF609
:102CD000CC44A2FB042803F0FC02A2F10802A2FBF0
:102CE00004290CF580656FF00304D0E90262D0F886
:102CF00010A03CBF0025C4F2020504EA9804C0E914
:102D00001054022580F825501D6847F6F07725EA13
:102D100007073A43476942EA0A0285693A43C769A5
:102D20002A43056A3A432A4332431A600CF5026289
:102D3000734538BF0CF50062A3180CF50862C26435
:102D4000C9F3041240F6840C01FA02F2B6F5804F82
:102D5000C4F2020C8364026506D10021416019604F
:102D6000CCF800201EE000BF41685FFA81FE013907
:102D700003294FF00001C3F800E0CCF8002011D87F
:102D8000AEF101020CEB820747F87C1F02F01F0135
:102D9000012202FA01F30CF1BC023946CCF8C03032
:102DA00002E000BF0022002300F1540C8CE80E006A
:102DB00000210122C16380F8252080F82410BDE89D
:102DC000F0470846704700002DE9F04190F824C014
:102DD000BCF1010F43D04FF0010C80F824C090F8F3
:102DE00025C0BCF1010F37D14FF0020C80F825C08F
:102DF0004FF0000CC0F83CC0D0F800C000F14C0E01
:102E00009EE83040DCF80060BEF1000F26F00106BD
:102E1000CCF8006065601CBFD0E916456560D0E95C
:102E20001076012506F01F068468B540D0F8308082
:102E30007D60CCF804300B46102C04BF13460A46C4
:102E4000CCF80830CCF80C20DCF80010B8F1000FFA
:102E500008D041F00E010DE0002180F8241002207E
:102E6000BDE8F08121F00401CCF80010DCF800107E
:102E700041F00A01CCF80010806C0168C90303D549
:102E8000016841F480710160BEF1000F05D0DEF8E9
:102E9000000040F48070CEF80000DCF8000040F044
:102EA0000100CCF800000020BDE8F081B0B5044678
:102EB00000F0F2F8054640F20000C2F2000040685F
:102EC000611C18BF044400BF00F0E6F8401BA0429C
:102ED000FAD3B0BD2DE9F04F82B00D68002D00F09F
:102EE000CB8041F2004400F13847C4F600040622CA
:102EF0004FEAB726A04208BF0522052E38BF4FEA89
:102F0000B722002401274FF0000E0026009209E0AE
:102F10000D68013635FA06F20EF1040E04F10204D2
:102F200000F0AA8007FA06FB15EA0B08F0D0D1F8EA
:102F300004A003220AF0030CACF10105A240012D0C
:102F40006FEA020910D88268CD6802EA0902A5403A
:102F50002A4382604268CAF3001522EA0B02B54098
:102F60002A43426006E000BFBCF1030F02D14FF0DC
:102F7000030C21E0C2688D6802EA0902A5402A43D9
:102F8000BCF1020FC26017D16FF0030202EA5602D1
:102F900002440EF01C030F25D2F820C005FA03FAF4
:102FA0000D692CEA0A0C05FA03F343EA0C031362D9
:102FB000D1F804A00AF0030C02680CFA04F302EA48
:102FC00009021A431AF4403F0260A1D041F26003A3
:102FD000C4F202031A6840F2004942F001021A608A
:102FE0001A68C4F2010902F001020192019A26F066
:102FF00003024FF6084A4A44CFF6FF7A52F80AC055
:103000000EF00C050F23009FAB402CEA030307FAD8
:1030100005F52B4342F80A30D9F808C04B684CEA52
:103020000805DA0258BF2CEA080540F20C4CC9F832
:103030000850C4F2010CDCF800209F0242EA0805A7
:1030400058BF22EA0805CCF80050D9F804209D03A7
:1030500042EA080758BF22EA0807C9F80470D9F8FD
:103060000020DB0342EA080758BF22EA0807C9F834
:10307000007001274CE700BF02B0BDE8F08F0000F0
:103080000069084018BF0120704700001823002A7B
:1030900008BF2823C150704743F2B020C2F200009D
:1030A0000068704740F2000043F2B021C2F2000015
:1030B000C2F2000140680A681044086070470000CE
:1030C00080B5032000F08CF80F2000F009F80028EC
:1030D0001CBF012080BD00F029F8002080BD000049
:1030E00070B540F20006C2F200067168E1B1044614
:1030F00040F20C00C2F200004FF47A720068B2FB9A
:10310000F1F1B0FBF1F000F09BFE0F2C4FF0010548
:1031100008D838B94FF0FF3021460022002500F0D2
:1031200033F83460284670BD012070BD82B041F292
:103130005800C4F20200816841F001018160816899
:1031400001F0010101910199016841F08051016094
:10315000006800F080500090009802B000F0E4B8E1
:10316000002848BF7047C1B200F01F00012202FAD8
:1031700000F04EF20012CEF2000242EAD10121F03C
:10318000030108607047000010B54EF60C5CCEF2EB
:10319000000CDCF80030C3F3022E8EF00704042C80
:1031A00028BF0424BEF103034FF0FF3E0EFA04F4DF
:1031B00038BF0023A14399400EFA03F39A43114309
:1031C00000F00F0200F160430901043A03F5644383
:1031D0006244002848BF02F10C03197010BD0000C2
:1031E0004EF60C51CEF200010A684FF6FF031A406A
:1031F00060F30A2242F0806040F0FD700860704782
:10320000B0F5007F42D0002840F0808047F21400E3
:10321000C4F2000050F8141CC26E01F4C06122F424
:103220008072B1F5806FC2662ED150F8141C012255
:1032300062F34A2140F8141C40F20C01C2F2000172
:103240000968322251434DF68362C4F21B32A1FB5E
:103250000212910C0268520511D54A1C0FD0026867
:1032600052050CD559B10268520508D5012906D07E
:103270000268520503D50229A1F10401EAD10068D0
:10328000400544BF032070470020704747F21400F8
:10329000C4F2000050F8141CC26E01F4C06142F484
:1032A0008072B1F5806FC266EED150F8141C012215
:1032B00062F34A2140F8141C40F20C01C2F20001F2
:1032C0000968322251434DF68362C4F21B32A1FBDE
:1032D0000212910C0268520511D54A1C0FD00268E7
:1032E00052050CD559B10268520508D5012906D0FE
:1032F0000268520503D50229A1F10401EAD1006850
:10330000400544BF03207047BEE700BF47F21400EA
:10331000C4F2000050F8141C022262F34A2140F863
:10332000141C00207047000047F20800C4F200009F
:10333000016841F480410160704700002DE9F041CF
:1033400082B00446807841F288060007C4F2020683
:1033500002D400202FE000BF56F8300C10F0805847
:103360000BD156F8300C40F0805046F8300C56F82F
:10337000300C00F080500190019847F20007C4F231
:103380000007386840F480703860FFF785FE054616
:103390003868C00500F1D680FFF77EFE401B02288A
:1033A000F6D90320B8F1000F05D156F8301C21F0F2
:1033B000805146F8301C2168CA0713D18A0719D4F6
:1033C0004A071FD40A0725D48A062BD44A0631D4CB
:1033D0000A0637D4CA053DD48A0543D44A0549D4E0
:1033E00057E000BF3268636822F003021A4332607C
:1033F0008A07E5D53268A36822F00C021A433260CE
:103400004A07DFD53268E36822F030021A4332609F
:103410000A07D9D53268236922F0C0021A43326004
:103420008A06D3D53268636922F440621A43326057
:103430004A06CDD53268A36922F440521A4332605D
:103440000A06C7D53268E36922F440421A43326063
:10345000CA05C1D53268236A22F440321A43326069
:103460008A05BBD53268636A22F440221A4332606F
:103470004A050ED53268A36A22F440121A43B3F506
:10348000801F326005D156F87C2C42F4801246F839
:103490007C2C0A050ED53268E36A22F440021A43F6
:1034A000B3F5800F326005D156F87C2C42F48012BF
:1034B00046F87C2CCA040ED53268236B22F0407289
:1034C0001A43B3F1807F326005D156F87C2C42F468
:1034D000801246F87C2C8A040ED53268636B22F089
:1034E00040621A43B3F1006F326005D156F87C2C6C
:1034F00042F4801246F87C2C4A040ED53268A36B45
:1035000022F040621A43B3F1006F326005D156F8E1
:103510007C2C42F4801246F87C2C09040ED53168CC
:10352000E26B21F040511143B2F1805F316005D16F
:1035300056F87C1C41F4803146F87C1C02B0BDE892
:10354000F08100BFB06810F4407010D0216C884248
:103550000BD0B068B16820F4407041F48031B160A4
:10356000B16821F48031B160B060C0070CD1B0689F
:10357000216C20F440700843B0600020B8F1000FC7
:103580007FF419AF11E700BFFFF786FD054641F252
:10359000883700BFB0688007E9D4FFF77DFD401B86
:1035A000B842F7D9FDE600002DE9F04700286DD0BC
:1035B00042F2000AC4F2020A0446DAF800000D469C
:1035C00000F00F0088420CD2DAF8000020F00F0063
:1035D0002843CAF80000DAF8000000F00F00A84203
:1035E00054D1216841F20808C807C4F2020803D187
:1035F000880740F1D880BDE0606802283AD00328EF
:1036000040D158F8082C920140D5D8F80420D8F8B9
:10361000043042F20046C3F3031302F00302D8F869
:1036200004700133C0F2F406032A04BF43F20066BB
:10363000C0F26E16B6FBF3F2D8F80430C7F30627D3
:103640007A43C3F34163022707EB4303B2FBF3F270
:103650004BF20043C0F2C4439A4261D9D8F800202B
:1036600012F0F00F51D089075AD5A168002957D11F
:103670004BE000BF58F8081C89035CBF0120BDE87F
:10368000F08707E058F8081C490503D40120BDE87D
:10369000F08700BFD8F8001001F00C0104293FD0DA
:1036A000D8F8001001F00C01082939D0D8F8001022
:1036B00001F00C010C2933D1D8F80410D8F80420FB
:1036C00042F20047C2F3031201F00301D8F80430BC
:1036D0000132C0F2F407032904BF43F20067C0F2CD
:1036E0006E17B7FBF2F1D8F80420C3F30623594351
:1036F000C2F34162022303EB4202B1FBF2F14BF24F
:103700000042C0F2C44291420AD9D8F800100822FF
:1037100062F307114FF00109C8F8001002E000BF82
:103720004FF00009D8F8001021F003010843C8F851
:103730000000FFF7B1FC064641F28837D8F80000D8
:10374000616800F00C00B0EB810F07D0FFF7A4FC1C
:10375000801BB842F2D90320BDE8F08721688807B2
:1037600008D4B9F1000F1ED0D8F8000020F0F00006
:1037700017E000BF480705D5D8F8000040F4E06026
:10378000C8F80000080706D5D8F80000072262F341
:103790000D20C8F80000D8F80000A26820F0F00062
:1037A0001043C8F80000DAF8000000F00F00A8424B
:1037B0001BD9DAF8000020F00F002843CAF80000F7
:1037C000FFF76AFC064641F2883700BFDAF80000CE
:1037D00000F00F00A84207D0FFF75EFC801BB84244
:1037E000F4D90320BDE8F0872168480707D5D8F849
:1037F0000000E26820F4E0601043C8F80000080709
:1038000008D5D8F80000216920F4605040EAC100D2
:10381000C8F80000D8F8000042F20041C0F2F401FC
:1038200000F00C00042808462DD0D8F8000000F065
:103830000C00082843F20060C0F26E1023D0D8F8C4
:10384000002002F00C020C2A1CD1D8F80420D8F871
:10385000043002F00302C3F30313D8F804700133F9
:10386000032A08BF0146B1FBF3F0D8F80410C7F3F0
:103870000627C1F341610222784302EB4101B0FB0C
:10388000F1F000E00020D8F800104AF60022C1F361
:103890000311C0F60002515C40F20C0201F01F015E
:1038A00020FA01F140F20000C2F200000068C2F20A
:1038B00000021160BDE8F047FFF712BC40F20C00B7
:1038C00041F20801C2F20000C4F202010068096876
:1038D0004AF61022C1F30221C0F60002515C01F049
:1038E0001F01C8407047000040F20C0041F208017F
:1038F000C2F20000C4F20201006809684AF6102210
:10390000C1F3C221C0F60002515C01F01F01C840A2
:103910007047000080B541F20C01C4F2020151F879
:10392000040C42F20042C0F2F40200F00C00042841
:10393000104608BF80BD51F8040C00F00C000828A8
:1039400043F20060C0F26E1022D051F8043C03F044
:103950000C030C2B1CBF002080BDD1F800C00B68ED
:103960000CF0030CC3F3031E0B680EF1010EBCF147
:10397000030F08BF02460968B2FBFEF0C3F306233B
:10398000C1F341610222584302EB4101B0FBF1F067
:1039900080BD00002DE9F04182B0002800F00681D2
:1039A0000446007841F20006C007C4F2020655D171
:1039B0002078800774D42078000700F19780207861
:1039C000400700F1B7802078800600F10781E569A3
:1039D000002D00F03082B06800F00C000C2840F0A0
:1039E0005981012D00F0E280F068216A00F00302A5
:1039F0008A4240F0DB80626A6FF00F0300F0F00152
:103A000003EB0212914240F0D180A16A00F4FE4221
:103A1000B2EB012F40F0CA80E16A00F07842B2EBCD
:103A2000C16F40F0C380226B0023CFF6E07303EA3E
:103A3000025200F4C001A2F50012914240F0B6809B
:103A4000616B4FF07E4202EA016100F0C06001F15B
:103A50007E41884240F0AA80EDE100BFB06800F0EE
:103A60000C01F06808295BD0032281F00C0122EAE6
:103A700000000844B0FA80F0400951D16068B0F508
:103A8000803F07D0B0F5A02F40F0DA80306840F4D6
:103A900080203060306840F480303060DBE000BF70
:103AA000B068F16800F00C00042869D001F003014F
:103AB00080F00C0081F002010844B0FA80F0400967
:103AC0005ED1E1683068002900F0D28040F4807057
:103AD0003060FFF7E1FA05463068400500F1FC80F0
:103AE000FFF7DAFA401B0228F6D92EE16169D6F811
:103AF0009400002900F0908040F00100C6F8940086
:103B0000FFF7CAFA054600BFD6F8940080073FF5D4
:103B100056AFFFF7C1FA401B0228F5D915E100BFE7
:103B2000306880037FF544AF606800287FF440AFC1
:103B30003CE000BFB06D10F0805808D1B06D40F08F
:103B40008050B065B06D00F080500190019847F250
:103B50000007C4F200073868C0052BD4386840F469
:103B600080703860FFF798FA054600BF3868C005D6
:103B700020D4FFF791FA401B0228F7D9E5E000BFF7
:103B80003068400501D5E06880B17068216920F097
:103B9000FE4040EA0160706040F20000C2F20000A6
:103BA0000068FFF79DFA00283FF405AF012002B03E
:103BB000BDE8F081A068012808D0052840F0AA805F
:103BC000D6F8900040F00400C6F89000D6F89000B7
:103BD00040F00100C6F89000A9E000BFA169D6F846
:103BE0009800002900F0808040F00100C6F898009D
:103BF000FFF752FA054600BFD6F8980080073FF558
:103C0000E6AEFFF749FA401B02284FF00300F3D954
:103C100002B0BDE8F08100BF20F00100C6F89400BA
:103C2000FFF73AFA054600BFD6F8940080077FF503
:103C3000C6AEFFF731FA401B0228F5D985E000BF78
:103C40003168002821F480313160316821F480210D
:103C5000316000F07F80FFF71FFA0546306880036F
:103C60003FF5A6AEFFF718FA401B6428F6D96CE0C2
:103C700020F480703060FFF70FFA05463068400589
:103C80007FF599AEFFF708FA401B02284FF00300BA
:103C9000F4D9BDE7306820F080703060FFF7FCF9A0
:103CA000022D05460CD100BF3068800140F17E80B6
:103CB000FFF7F2F9401B02284FF00300F4D9A7E701
:103CC0003068800140F1B080FFF7E6F9401B022820
:103CD0004FF00300F4D99BE77068216920F0FE40A3
:103CE00040EA0160706066E620F00100C6F89800C6
:103CF000FFF7D2F9054600BFD6F8980080077FF598
:103D000066AEFFF7C9F9401B02284FF00300F3D954
:103D10007EE700BFD6F8901021F00101C6F89010A0
:103D2000D6F8901021F00401C6F8901010B3FFF7F8
:103D3000B3F9054641F28837D6F8900080072BD4B6
:103D4000FFF7AAF9401BB842F6D9032002B0BDE83C
:103D5000F08100BFFFF7A0F9054600BF306880037F
:103D60007FF526AEFFF798F9401B64284FF003005B
:103D7000F4D94DE7FFF790F9054641F2883700BFC7
:103D8000D6F89000800707D5FFF786F9401BB842A8
:103D90004FF00300F4D93BE7B8F1000F7FF413AE06
:103DA000B06D20F08050B0650DE600BFF06848F2BD
:103DB0000C01C0F29F1104F1200700EA010C8ECF24
:103DC0006FF00F00D4E90C5400EB02100022CFF684
:103DD000E07241EA0C0102EA05520843A2F5001222
:103DE0004FF07E4540EA032005EA0465104305F1E3
:103DF0007E4540EAC7602843F060306840F080703C
:103E00003060F06840F08070F060FFF745F90446DC
:103E1000306880010FD4FFF73FF9001B02284FF0F4
:103E20000300F5D9F4E600BFF0684FF6FC71CFF659
:103E3000EE610840F060002002B0BDE8F0810000B3
:103E4000411E0020B0EB116F1CBF012070474EF2E5
:103E50001002CEF2000251604EF62351CEF2000164
:103E6000F0230B70072190601160704770470000CD
:103E70007047000070470000704700007047000066
:103E80007047000070B590F83C20012A4FF0020204
:103E900047D080F83D20026843F2004C5468936894
:103EA000C4F2010C42F6004E6245C4F2010E01D08C
:103EB000724503D14D6824F470042C434FF68F757E
:103EC000CFF6FF550E682C4042F6FF35C4F20105CF
:103ED0003443AA4254600FDCB2F1804F16D040F256
:103EE0000046C4F20006B24210D040F60006C4F20A
:103EF0000006B2420AD00EE0724507D044F2000636
:103F0000C4F20106B24201D0624504D1896823F0AF
:103F10008003194391600121002280F83D1080F850
:103F20003C20104670BD000070470000002804BF10
:103F30000120704710B5044690F83D0028B90020D4
:103F400084F83C00204600F023F8022084F83D006D
:103F50002068211D04F020FB012084F8480084F82B
:103F60003E0084F83F0084F8400084F8410084F863
:103F7000420084F8430084F8440084F8450084F843
:103F8000460084F8470084F83D00002010BD000082
:103F900080B582B00068B0F1804F1CBF02B080BD18
:103FA00041F25800C4F202000168002241F0010110
:103FB00001600068002100F00100019001981C20C0
:103FC000FFF7E2F81C2002B0BDE88040FFF7C8B858
:103FD00090F83D1001291CBF01207047022180F894
:103FE0003D10016842F6FF32C868C4F201029142F6
:103FF00040F00100C8600FDCB1F1804F1ED040F2EC
:104000000040C4F20000814218D040F60000C4F223
:104010000000814212D01EE042F60040C4F20100CE
:1040200081420BD044F20000C4F20100814205D06D
:1040300043F20040C4F2010081420CD1886807229B
:10404000C0F201020240062A4FF0000008D0B2F58B
:10405000803F08BF7047086840F0010008600020FA
:10406000704700000146006841F21113C26822F057
:104070000102C260026A1A4204D00122002081F8C3
:104080003D207047026A44F244431A42F5D1026867
:1040900022F0010202600122002081F83D207047D9
:1040A00080B590F83C20012A4FF0020200F0A98070
:1040B00080F83D20D0F800C08822DCF80830CFF628
:1040C000CE721A40CCF808200B686F2B10DD1F222F
:1040D000C0F21002934237DCB3F5005F46DA702B72
:1040E00000F09280B3F5805F00F08480D6E000BFDE
:1040F0002F2B35DD4F2B3FDC302B6FD0402B40F08A
:10410000CD80D1F804E0C968DCF82030DCF820204C
:1041100022F00102CCF82020DCF8182022F0F00276
:1041200042EA011123F00A0242EA0E02CCF818100A
:10413000CCF82020DCF808104FF68872CFF6CF724A
:104140001140473154E000BF3F21C0F210018B42C3
:104150003ADC2021C0F210018B423FD0302139E0FF
:10416000E3B3102B3AD0202B38D097E060D0B3F1D6
:10417000101F33D092E000BF502B6DD0602B40F069
:104180008D80D1F804E0C968DCF82030DCF820200C
:1041900022F01002CCF82020DCF8182022F4704223
:1041A00042EA013123F0A00242EA0E12CCF81810C4
:1041B000CCF82020DCF808104FF68872CFF6CF72CA
:1041C0001140673114E000BF4021C0F210018B4262
:1041D00004D07021C0F210018B425FD1DCF80810CE
:1041E0004FF68872CFF6CF721140194341F00701A4
:1041F000CCF808100022012180F83D10002180F841
:104200003C10104680BD00BFD1E901E3C968DCF86D
:10421000082043EA0E0322F47F4243EA01211143BE
:10422000CCF80810DCF8081041F07701E0E700BF97
:10423000D1E901E3C968DCF8082043EA0E0322F45F
:104240007F4243EA01211143CCF80810DCF8081042
:1042500041F48041CCE700BFD1F804E0C968DCF844
:104260002030DCF8202022F00102CCF82020DCF8FD
:10427000182022F0F00242EA011123F00A0242EA79
:104280000E02CCF81810CCF82020DCF808104FF6FD
:104290008872CFF6CF7211405731A9E70122AAE701
:1042A00070470000F0B581B004460068C568066933
:1042B000B10717D515F0020114D06FF002010161AA
:1042C000012121778069800704D02046FFF7E8FFAD
:1042D00006E000BF204600F0CBF8204600F0CAF808
:1042E00000202077700719D515F0040016D020683B
:1042F0006FF00401016102212177806910F4407F91
:1043000004D02046FFF7CCFF06E000BF204600F0B7
:10431000AFF8204600F0AEF800202077300717D520
:1043200015F0080014D020686FF008010161042125
:104330002177C069800703D02046FFF7B1FF05E071
:10434000204600F095F8204600F094F800202077F1
:10435000F00619D515F0100016D020686FF0100186
:10436000016108212177C06910F4407F04D0204604
:10437000FFF796FF06E000BF204600F079F82046E0
:1043800000F078F800202077F00718BF15F0010042
:1043900006D020686FF001010161204600F06CF842
:1043A00016F4025F05F0800718BF002F02D1F00558
:1043B00009D410E020686FF4025101612046FFF734
:1043C00057FDF00507D537B120686FF480710161A2
:1043D0002046FFF74BFD700609D515F0400006D0CA
:1043E00020686FF040010161204600F047F8B006F8
:1043F00009D515F0200006D020686FF0200101617A
:104400002046FFF737FDF00209D515F4801006D0DD
:1044100020686FF4801101612046FFF72FFDB00284
:1044200009D515F4001006D020686FF40011016161
:104430002046FFF721FD700209D515F4800006D053
:1044400020686FF4800101612046FFF719FD3002FA
:104450000CD515F4000009D021686FF40002204645
:104460000A6101B0BDE8F040FFF75EBD01B0F0BDEC
:104470007047000070470000704700007047000060
:1044800090F88410012904BF022070472421C0F84D
:10449000881002681168136823F00103136021F08B
:1044A00000530021416613602022C0F8882080F864
:1044B00084100846704700007047000070470000F5
:1044C000B0B590F88420012A04BF0220B0BD242298
:1044D000C0F888200268D0F864E0D2F800C0136801
:1044E000BEF1000F23F001031360936823F06063B3
:1044F00041EA0301916019D0936891684CF6302E1F
:10450000490FC0F6000E4CF638251EF80140C0F6E3
:104510000005695CC3F34263E400B4FBF1F11EF8EB
:104520000340EB5CE500B5FBF3F301E0012101235F
:10453000A0F86A102021A0F86830C2F800C0C0F8C6
:104540008810002180F884100846B0BDB0B590F8FE
:104550008420012A04BF0220B0BD2422C0F8882094
:104560000268D0F864E0D2F800C01368BEF1000F12
:1045700023F001031360936823F0604341EA0301D1
:10458000916019D0936891684CF6302E490FC0F6AF
:10459000000E4CF638251EF80140C0F60005695C97
:1045A000C3F34263E400B4FBF1F11EF80340EB5C9B
:1045B000E500B5FBF3F301E001210123A0F86A1047
:1045C0002021A0F86830C2F800C0C0F8881000218F
:1045D00080F884100846B0BD7047000070470000A6
:1045E0007047000070B5016840F62F03CA690446A1
:1045F00008688E681340202B0CD100F0200306F0D1
:1046000080555B1917D0616F00297BD02046BDE82B
:104610007040084740F60F031A420CD00123C1F244
:10462000000306EA030C40F22013C0F200430340EB
:1046300013EB0C0368D1E36E012B05D112F01003CC
:1046400018BF10F010034DD1D3020BD516F4800320
:1046500008D04FF4801220460A62BDE87040FFF790
:10466000BDBF00BF110606D500F0800106F40003AF
:10467000C91840F03782510640F1108110F0400116
:1046800000F00C81206850E8000F216820F0400005
:1046900041E80002DAB1206850E8000F216820F0FC
:1046A000400041E8000292B1206850E8000F216804
:1046B00020F0400041E800024AB1206850E8000FB5
:1046C000216820F0400041E80002002ADAD12020D1
:1046D0000021C4F888002046A167BDE8704000F0C2
:1046E000F5BB00BF102008628868400618D4B4F8F3
:1046F0005C00B4F85E10B4F85E20002A18BF88424F
:1047000040F0128270BD00BFD30718BF10F4807351
:1047100040F0D080930706F0010E00F1D780E0E072
:10472000D4F8800000684268B4F85C3091B2002987
:1047300000F0DE81994280F0DB81A4F85E20006801
:10474000800600F19E80206850E8000F216820F468
:10475000807041E80002DAB1206850E8000F21685B
:1047600020F4807041E8000292B1206850E8000F08
:10477000216820F4807041E800024AB1206850E8C6
:10478000000F216820F4807041E80002002ADAD18D
:10479000206850E8020F216820F0010041E8020281
:1047A000BAB3206850E8020F216820F0010041E808
:1047B000020272B3206850E8020F216820F0010065
:1047C00041E802022AB3206850E8020F216820F075
:1047D000010041E80202002ADAD11AE0206850E81C
:1047E000020F216820F0400041E80202DAB120689F
:1047F00050E8020F216820F0400041E8020292B127
:10480000206850E8020F216820F0400041E80202D1
:104810004AB1206850E8020F216820F0400041E8CA
:104820000202002ADAD12020C4F88C000020E066C1
:10483000206850E8000F216820F0100041E80002D5
:10484000DAB1206850E8000F216820F0100041E83C
:10485000000292B1206850E8000F216820F010009B
:1048600041E800024AB1206850E8000F216820F0BA
:10487000100041E80002002ADAD1D4F88000FEF7E7
:1048800041F902202067B4F85C00B4F85E10401AC9
:1048900081B22046BDE87040FFF70EBE110240F124
:1048A000318110F0804100F02D812046BDE870403C
:1048B000FFF792BE01230B62D4F8903043F001035E
:1048C000C4F89030930706F0010E0AD5BEF1000F30
:1048D00007D002230B62D4F8903043F00403C4F8ED
:1048E000903053070AD5BEF1000F07D004230B62A6
:1048F000D4F8903043F00203C4F8903013070CD57D
:1049000000F0200353EA0C0307D008230B62D4F80D
:10491000903043F00803C4F8903013050BD510F025
:10492000806308D04FF400630B62D4F8903043F0FA
:104930002003C4F89030D4F89030002B3FF4E2AE5E
:1049400012F020021EBF00F0200006F0805210EB93
:10495000020040F06B81D4F89000896800F02800D4
:1049600001F04001401807D12046FFF739FE002032
:10497000C4F8900070BD00BF206850E8000F2168A7
:1049800020F4907041E80002DAB1206850E8000F8E
:10499000216820F4907041E8000292B1206850E84C
:1049A000000F216820F4907041E800024AB12068AD
:1049B00050E8000F216820F4907041E80002002ABE
:1049C000DAD14FF6FE70CEF6FF7000BF216851E8D5
:1049D000021F2268014042E80213C3B1216851E876
:1049E000021F2268014042E8021383B1216851E8A6
:1049F000021F2268014042E8021343B1216851E8D6
:104A0000021F2268014042E80213002BDED1E06E53
:104A1000012824D1206850E8000F216820F0100000
:104A200041E80002DAB1206850E8000F216820F068
:104A3000100041E8000292B1206850E8000F2168A0
:104A400020F0100041E800024AB1206850E8000F51
:104A5000216820F0100041E80002002ADAD120206D
:104A6000C4F88C000020E066216860678868400612
:104A700054D500BF206850E8020F216820F04000A4
:104A800041E80202DAB1206850E8020F216820F004
:104A9000400041E8020292B1206850E8020F21680C
:104AA00020F0400041E802024AB1206850E8020FBD
:104AB000216820F0400041E80202002ADAD1D4F84F
:104AC000800058B348F60D11C0F600018163FEF76F
:104AD00051F800283FF416AED4F88000816BBDE891
:104AE00070400847A16F00297FF490AD0AE600BF2F
:104AF0008B427FF407AE006880067FF503AE02228A
:104B00008DE000BFD1017FF5FDADB0F1FF3FC8BF23
:104B100070BD2046BDE87040FFF7D0BC2046BDE820
:104B20007040FFF75DBD00BF401A00BF216851E82B
:104B3000001F226821F4907142E80013DBB1216864
:104B400051E8001F226821F4907142E8001393B1EC
:104B5000216851E8001F226821F4907142E8001397
:104B60004BB1216851E8001F226821F4907142E89E
:104B70000013002BDAD14FF6FE71CEF6FF7100BFA5
:104B8000226852E8022F23680A4043E80226C6B191
:104B9000226852E8022F23680A4043E8022686B1C1
:104BA000226852E8022F23680A4043E8022646B1F1
:104BB000226852E8022F23680A4043E80226002EAA
:104BC000DED12021C4F88C100021E166616700BFAE
:104BD000216851E8001F226821F0100142E800130B
:104BE000DBB1216851E8001F226821F0100142E882
:104BF000001393B1216851E8001F226821F01001D1
:104C000042E800134BB1216851E8001F226821F0EF
:104C1000100142E80013002BDAD1022281B22046B3
:104C20002267BDE87040FFF747BC00BF626F002AF3
:104C30003FF491AE2046904721688CE610B5D8B17C
:104C40000446D0F8880028B9002084F88400204663
:104C500000F026F82420C4F888002068A16A0268C1
:104C600022F00102026011B1204603F023FD20462C
:104C700003F052FE012801D1012010BD21684868CF
:104C800020F490404860886820F02A008860086816
:104C900040F0010220460A60BDE8104003F07EBDEE
:104CA00010B596B00446684608303C21FBF782FCFC
:104CB000206843F60001C4F20101884202D016B018
:104CC00010BD00BF01200090002468460194FEF74B
:104CD00035FB002818BFFCF775FA41F24C00C4F20E
:104CE0000200416941F480414161416901F4804120
:104CF00011911199016841F001010160006811A949
:104D000000F00100119011984FF4C0601190022042
:104D1000CDE91204072015904FF090401494FEF74F
:104D2000D9F8252000210022FEF72EFA2520FEF7D3
:104D300017FA16B010BD00002DE9F0410446D0F876
:104D4000880020281CBF0220BDE8F0810D46002904
:104D50004FF0010000F0B8801646002A08BFBDE8F9
:104D6000F0810020C4F8900021209846C4F8880003
:104D7000FEF792F9A4F85460A4F85660A1680646BC
:104D8000B1F5805F02D1206900286BD02F46002545
:104D9000B4F8560000286BD018F101001CD0B8F10F
:104DA000000F3DD121680BE017F8010B8862B4F8C1
:104DB00056000138A4F85600B4F85600002858D020
:104DC000C869000640F17A80002FEDD135F8020B5A
:104DD00000276FF35F20E9E7216802E0C869000659
:104DE00009D4C869000606D4C86900065CBFC86952
:104DF0005FEA0060F2D51FB117F8010B05E000BFB4
:104E000035F8020B00276FF35F208862B4F8560074
:104E10000138A4F85600B4F856000028E1D128E083
:104E2000216800BFC869000608D4FEF735F9801B69
:104E3000404545D821680868F4E700BF17B117F866
:104E4000010B04E035F8020B00276FF35F20886246
:104E5000B4F856000138A4F85600B4F856000028FB
:104E6000E0D106E00027B4F8560000287FF494AFA4
:104E70002168C86940061FD4B8F1000F1ED018F190
:104E800001000FD1C869400616D4C869400613D482
:104E9000C869400610D4C86940064FF00000F1D53B
:104EA0000FE000BFFEF7F8F8801B404508D82068E7
:104EB0000168C0694006F5D5002002E0FEF7ECF875
:104EC00003202021C4F88810BDE8F081704700005D
:104ED000FEE7000040F21841C4F600010A6942F4FE
:104EE00000720A610A6942F480720A610A6842F03B
:104EF00020020A602022C1F8FC230A6942F0200245
:104F00000A6100BF00BF00BF0A6842F020020A60C9
:104F10000A6842F480720A600022C1F8FC230B691F
:104F200043F020030B6100BF00BF00BF0B6843F0DC
:104F300020030B600B6843F480730B600B6943F430
:104F400000730B610B6943F480730B610B6843F0D2
:104F500020030B602123C1F8FC330B6943F02003CD
:104F60000B6100BF00BF00BF0B6843F020030B6064
:104F70000B6843F480730B60C1F8FC230A6942F0AC
:104F800020020A6100BF00BF00BF0A6842F0200291
:104F90000A600A6842F480720A600A6942F4007288
:104FA0000A610A6942F480720A610A6842F02002CA
:104FB0000A602222C1F8FC230A6942F020020A6139
:104FC00000BF00BF00BF0A6842F020020A600A6802
:104FD00042F480720A6000BF00BF00BF0A6842F45A
:104FE00000720A604FF496320B69053A43F400737D
:104FF0000B610B6843F480730B600B6843F0200374
:105000000B60C1F8FC030B6943F020030B6100BF88
:1050100000BF00BF0B6843F020030B600B6843F434
:1050200080730B6000BF00BF00BF0B6843F40073C8
:105030000B600B6943F400730B610B6843F48073DE
:105040000B600B6843F020030B60C1F8FC030B6995
:1050500043F020030B6100BF00BF00BF0B6843F0AB
:1050600020030B600B6843F480730B6000BF00BF2C
:1050700000BF0B6843F400730B600B6943F40073CB
:105080000B610B6843F480730B600B6843F02003E3
:105090000B60C1F8FC030B6943F020030B6100BFF8
:1050A00000BF00BF0B6843F020030B600B6843F4A4
:1050B00080730B6000BF00BF00BF0B6843F4007338
:1050C0000B600B6943F400730B610B6843F480734E
:1050D0000B600B6843F020030B60C1F8FC030B6905
:1050E00043F020030B6100BF00BF00BF0B6843F01B
:1050F00020030B600B6843F480730B6000BF00BF9C
:1051000000BF0B6843F400730B600B6943F400733A
:105110000B610B6843F480730B600B6843F0200352
:105120000B60C1F8FC030B6943F020030B6100BF67
:1051300000BF00BF0B6843F020030B600B6843F413
:1051400080730B6000BF00BF00BF0B6843F40073A7
:105150000B607FF449AF70472DE9F0410A78FAB14E
:105160004AF6182804464D1C002740F23F16C0F6A8
:10517000000800BFA2F12000C1B2490051FA80F03E
:1051800008EB0012B1B2204600F00CF8EA5D002AEC
:1051900008BFBDE8F081103E132F07F10107E9D3E6
:1051A000BDE8F0812DE9F04740F21843C4F6000352
:1051B0001F694FF0200C47F400771F611F694FF003
:1051C000210E47F480771F611F6840F2080947F0FD
:1051D00020071F60C3F8FCC31F6940F2CA0A47F0EA
:1051E00020071F6100BF00BF00BF1F684FF02208EB
:1051F00047F020071F601F68C2F2000947F480775C
:105200001F60C3F8FC031F69C2F2000A47F02007C1
:105210001F6100BF00BF00BF1F6847F020071F606D
:105220001F6847F480771F601F6947F400771F618C
:105230001F6947F480771F611F6847F020071F60D0
:10524000C3F8FCE31C6944F020041C6100BF00BFEC
:1052500000BF1C6844F020041C601C6844F4807487
:105260001C60C3F8FC131C6944F020041C6100BFDF
:1052700000BF00BF1C6844F020041C601C6844F49C
:1052800080741C60002400BF1D6945F400751D6119
:105290001D6945F480751D611D6845F020051D6080
:1052A000C3F8FC831D6945F020051D6100BF00BFE8
:1052B00000BF1D6845F020051D601D6845F4807520
:1052C0001D6000BF00BF00BF1D6845F400751D6074
:1052D000002500BF32F81460EE40F607564608BFBE
:1052E0004E4636881F6947F400771F611F6847F4F0
:1052F00080771F601F6847F020071F60C3F8FC63BA
:105300001E6946F020061E6100BF00BF00BF1E6878
:1053100046F020061E601E6846F480761E6000BFC0
:1053200000BF00BF1E6846F400761E6032F81460AD
:10533000EE40B607564658BF4E4636881F6947F4BA
:1053400000771F611F6847F480771F601F6847F070
:1053500020071F60C3F8FC631E6946F020061E612B
:1053600000BF00BF00BF1E6846F020061E601E681A
:1053700046F480761E6000BF00BF00BF1E6846F482
:1053800000761E6032F81460EE407607564658BF2D
:105390004E4636881F6947F400771F611F6847F43F
:1053A00080771F601F6847F020071F60C3F8FC6309
:1053B0001E6946F020061E6100BF00BF00BF1E68C8
:1053C00046F020061E601E6846F480761E6000BF10
:1053D00000BF00BF1E6846F400761E6032F81460FD
:1053E000EE403607564658BF4E4636881F6904358C
:1053F00047F400771F611F68102D47F480771F6006
:105400001F6847F020071F60C3F8FC631E6946F061
:1054100020061E6100BF00BF00BF1E6846F02006C8
:105420001E601E6846F480761E6000BF00BF00BF8D
:105430001E6846F400761E607FF44CAF1D69013093
:1054400045F400751D611D69013445F480751D61C9
:105450001D68182C45F020051D60C3F8FCC31D69AC
:1054600045F020051D6100BF00BF00BF1D6845F06D
:1054700020051D601D6845F480751D60C5B2C3F828
:10548000FC531D6945F020051D6100BF00BF00BF32
:105490001D6845F020051D601D6845F480751D6080
:1054A0001D6945F400751D611D6945F480751D6118
:1054B0001D6845F020051D60C3F8FCE31D6945F03B
:1054C00020051D6100BF00BF00BF1D6845F020051D
:1054D0001D601D6845F480751D60C3F8FC131D69CF
:1054E00045F020051D6100BF00BF00BF1D6845F0ED
:1054F00020051D601D6845F480751D6008BFBDE86E
:10550000F087C1E6F0B540F2184CC4F6000CDCF8A8
:105510001050002B45F40075CCF81050DCF81050FA
:1055200045F48075CCF81050DCF8005045F02005AB
:10553000CCF800504FF02005CCF8FC53DCF81050AC
:1055400045F02005CCF8105000BF00BF00BFDCF8CC
:10555000005045F02005CCF80050DCF8005045F430
:105560008075CCF80050CCF8FC03DCF8105045F006
:105570002005CCF8105000BF00BF00BFDCF8005081
:1055800045F02005CCF80050DCF8005045F480755B
:10559000CCF80050DCF8105045F40075CCF81050F1
:1055A000DCF8105045F48075CCF81050DCF8005051
:1055B00045F02005CCF800504FF02105CCF8FC5305
:1055C000DCF8105045F02005CCF8105000BF00BFAB
:1055D00000BFDCF8005045F02005CCF80050DCF8A6
:1055E000005045F48075CCF80050CCF8FC13DCF882
:1055F000105045F02005CCF8105000BF00BF00BF90
:10560000DCF8005045F02005CCF80050DCF80050E4
:1056100045F48075CCF8005000F0F880002A00F0C6
:10562000F38040F2CA034FF0220EC2F2000320249E
:10563000212500BFDCF81060013046F40076CCF87C
:105640001060DCF81060013A46F48076CCF8106007
:10565000DCF8006046F02006CCF80060CCF8FCE3F3
:10566000DCF8106046F02006CCF8106000BF00BFE8
:1056700000BFDCF8006046F02006CCF80060DCF8E3
:10568000006046F48076CCF8006000BF00BF00BF29
:10569000DCF8006046F40076CCF800601E88DCF888
:1056A000107047F40077CCF81070DCF8007047F405
:1056B0008077CCF80070DCF8007047F02007CCF859
:1056C0000070CCF8FC63DCF8106046F02006CCF8E3
:1056D000106000BF00BF00BFDCF8006046F020068D
:1056E000CCF80060DCF8006046F48076CCF800600E
:1056F00000BF00BF00BFDCF8006046F40076CCF8C5
:105700000060DCF8106046F40076CCF81060DCF83D
:10571000106046F48076CCF81060DCF8006046F04B
:105720002006CCF80060CCF8FC43DCF8106046F0B2
:105730002006CCF8106000BF00BF00BFDCF800609E
:1057400046F02006CCF80060DCF8006046F4807675
:10575000CCF80060C6B2CCF8FC63DCF8106046F010
:105760002006CCF8106000BF00BF00BFDCF800606E
:1057700046F02006CCF80060DCF8006046F4807645
:10578000CCF80060DCF8106046F40076CCF81060CD
:10579000DCF8106046F48076CCF81060DCF800602D
:1057A00046F02006CCF80060CCF8FC53DCF8106022
:1057B00046F02006CCF8106000BF00BF00BFDCF848
:1057C000006046F02006CCF80060DCF8006046F48B
:1057D0008076CCF80060CCF8FC13DCF8106046F062
:1057E0002006CCF8106000BF00BF00BFDCF80060EE
:1057F00046F02006CCF80060DCF8006046F48076C5
:10580000CCF800607FF416AFF0BD00BFDCF81000EC
:10581000002A40F40070CCF81000DCF8100040F4CE
:105820008070CCF81000DCF8000040F02000CCF8CC
:1058300000004FF02200CCF8FC03DCF8100040F030
:105840002000CCF8100000BF00BF00BFDCF8000053
:1058500040F02000CCF80000DCF8000040F480703C
:10586000CCF8000000BF00BF00BFDCF8000040F42F
:105870000070CCF80000C7D0501E032802F00300CF
:10588000C0F0D58022F0030140F2CA02C2F2000249
:105890001388DCF81050043945F40075CCF810502A
:1058A000DCF8005045F48075CCF80050DCF800506E
:1058B00045F02005CCF80050CCF8FC33DCF8103073
:1058C00043F02003CCF8103000BF00BF00BFDCF86D
:1058D000003043F02003CCF80030DCF8003043F413
:1058E0008073CCF8003000BF00BF00BFDCF8003090
:1058F00043F40073CCF800301388DCF8105045F402
:105900000075CCF81050DCF8005045F48075CCF8E8
:105910000050DCF8005045F02005CCF80050CCF8E1
:10592000FC33DCF8103043F02003CCF8103000BF1B
:1059300000BF00BFDCF8003043F02003CCF800309B
:10594000DCF8003043F48073CCF8003000BF00BFB7
:1059500000BFDCF8003043F40073CCF8003013884B
:10596000DCF8105045F40075CCF81050DCF800500D
:1059700045F48075CCF80050DCF8005045F0200567
:10598000CCF80050CCF8FC33DCF8103043F02003A6
:10599000CCF8103000BF00BF00BFDCF8003043F08F
:1059A0002003CCF80030DCF8003043F48073CCF8EE
:1059B000003000BF00BF00BFDCF8003043F40073CC
:1059C000CCF800301388DCF8105045F40075CCF8A2
:1059D0001050DCF8005045F48075CCF80050DCF82D
:1059E000005045F02005CCF80050CCF8FC33DCF832
:1059F000103043F02003CCF8103000BF00BF00BFD0
:105A0000DCF8003043F02003CCF80030DCF8003044
:105A100043F48073CCF8003000BF00BF00BFDCF857
:105A2000003043F40073CCF800307FF431AF00282D
:105A30003FF4EAAE40F2CA01C2F200010A88DCF883
:105A40001030012843F40073CCF81030DCF800303B
:105A500043F48073CCF80030DCF8003043F02003CE
:105A6000CCF80030CCF8FC23DCF8102042F0200207
:105A7000CCF8102000BF00BF00BFDCF8002042F0CF
:105A80002002CCF80020DCF8002042F48072CCF830
:105A9000002000BF00BF00BFDCF8002042F400720D
:105AA000CCF800203FF4B0AE0A88DCF810300228B1
:105AB00043F40073CCF81030DCF8003043F480730A
:105AC000CCF80030DCF8003043F02003CCF8003094
:105AD000CCF8FC23DCF8102042F02002CCF8102097
